:040000004AEF00F0D3
:100008003B82FACF17F0FBCF18F0E9CF19F0EACF0F
:100018001AF0E1CF1BF0E2CF1CF0D9CF1DF0DACFF8
:100028001EF0F3CF1FF0F4CF20F0F6CF21F0F7CF7A
:1000380022F0F8CF23F0F5CF24F09DB89EA803D086
:1000480049EC09F005D09DBA9EAA02D0BDEC04F097
:1000580024C0F5FF23C0F8FF22C0F7FF21C0F6FF38
:1000680020C0F4FF1FC0F3FF1EC0DAFF1DC0D9FF78
:100078001CC0E2FF1BC0E1FF1AC0EAFF19C0E9FF7C
:1000880018C0FBFF17C0FAFF3B9211009EEF07F064
:10009800900E0001A26F000E0001A36F68D2250E1A
:1000A8000001AB19D8B405D00001AB5150EC0AF0EF
:1000B8005ED2000E0001AA6F000EA96F000E0001AB
:1000C800A86F05D00001A88500018E4B8F2B8EC02C
:1000D800F6FF8FC0F7FFF86A0800F550300AD8B469
:1000E800F1D78EC0F6FF8FC0F7FFF86A0800F55009
:1000F80002EC0AF0D8A0D1D0000E0001AA6F000EC1
:10010800A96FA9C025F0AAC026F0000E286E0A0E15
:10011800276EB1EC09F025C0A9F026C0AAF0D00ED0
:1001280000019A6FFF0E00019B6F8EC0F6FF8FC013
:10013800F7FFF86A0800F55000019C6F9D6B0001FD
:100148009A5100019C2700019B5100019D23000149
:100158009C510001A92700019D510001AA2300011B
:100168008E4B8F2B8EC0F6FF8FC0F7FFF86A080002
:10017800F55002EC0AF0D8A090D0C3D70001A88FA0
:10018800ACD0A2C0D9FFA3C0DAFFDECFA0F0DDCF8C
:10019800A1F0020E0001A227000EA3230001A05126
:1001A8000001A111D8A406D0F80E0001A06FFF0E1F
:1001B8000001A16F000E0001A56F000EA46F03D00F
:1001C8000001A44BA52B0001A4510001A0250001AA
:1001D8009A6F0001A5510001A12100019B6F9AC0EF
:1001E800F6FF9BC0F7FF000EF86E0F0EF76403D002
:1001F8000800F55005D0F6CFE1FFF7CFE2FFE75052
:100208000009D8A4DDD70001A9510001A45D0001AF
:10021800AA510001A559D8B009D00001A451000184
:10022800A95F0001A5510001AA5B09D0000E0001D9
:10023800AA6F000EA96F03D0200E50EC0AF000013F
:10024800A907D8A0AA070001A929F6E10001AA294F
:10025800D8B417D0F1D7A0C0F6FFA1C0F7FF000EA1
:10026800F86E0F0EF76403D00800F55005D0F6CFEE
:10027800E1FFF7CFE2FFE75050EC0AF00001A04B96
:10028800A12B0001A407D8A0A5070001A429E3E138
:100298000001A529D8B46BD1DED78EC0F6FF8FC078
:1002A800F7FF00018E4B8F2BF86A0800F5CFABF0F3
:1002B8000001AB51000AD8B41200580AD8B45ED76E
:1002C8003C0AD8B40AD00D0AD8B407D01A0AD8B450
:1002D80058D70B0AD8B452D74AD10001A8BF19D0B1
:1002E800A2C0D9FFA3C0DAFFDECFA6F0DDCFA7F00A
:1002F800020E0001A227000EA3230001A7AF59D0C8
:10030800030E0001A8130001A66DA71FD8B0A72BE4
:1003180050D0A2C0D9FFA3C0DAFFDECFA6F0DDCF50
:10032800A7F0020E0001A227000EA32342D0010E5F
:100338000001AB6F050E0001AB19D8B443D0000122
:10034800AB51020D9B0EF324F66EFE0EF420F76EF1
:10035800F86A000EF8220900F5500001A65D0900B0
:10036800F5500001A759D8A02DD00001AB2BE2D73A
:10037800010E0001AB6F040E0001AB19D8B422D0F6
:100388000001AB51020DA50EF324F66EFE0EF4200B
:10039800F76EF86A000EF8220900F5500001A65D14
:1003A8000900F5500001A759D8A00CD00001AB2BCB
:1003B800E2D70001A851800B000AD8B4B8D7800A48
:1003C800D8B4D6D70001A9510001AA11D8B40BD0CE
:1003D800A8C09AF0030E00019A17D8B404D00001FF
:1003E800A907D8A0AA07800E0001ABBF7F0E0001A5
:1003F8009A6F0001A9510001AB5D0001AA51800A62
:1004080000019A59D8B00BD00001AB510001A95F87
:10041800000E0001ABBFFF0E0001AA5B05D0000E65
:100428000001AA6F000EA96F0001A8A518D0A8C0E6
:100438009AF0030E00019A17D8B403D02D0E50EC91
:100448000AF00001A9510001AA11D8B425D0300E34
:1004580050EC0AF00001A907D8A0AA07F2D70001BA
:10046800A9510001AA11D8B40DD0200E50EC0AF001
:100478000001A907D8A0AA070001A9510001AA11E3
:10048800D8A4F3D7A8C09AF0030E00019A17D8B4DD
:1004980003D02D0E50EC0AF0ABC09FF062D00001E3
:1004A8009F51020D9B0EF324F66EFE0EF420F76E9C
:1004B800F86A000EF8220900F5CF27F00A00F5CFF8
:1004C80028F0A6C025F0A7C026F02AEC08F025C021
:1004D80089F026C08AF0000E00018C6F0A0E8B6F1F
:1004E800CFEC07F000018951300F0001AB6F35D018
:1004F800A6C025F0A7C026F000019F51020DA50E49
:10050800F324F66EFE0EF420F76EF86A000EF82259
:100518000900F5CF27F00A00F5CF28F02AEC08F0FB
:1005280025500F0B00019E6F00019E51010D550EC5
:10053800F324F66EFF0EF420F76EF86A000EF82228
:100548000800F5CFABF009D00001A851800B000AD4
:10055800D8B4A5D7800AD8B4CBD70001AB5150EC9A
:100568000AF000019F0700019F29D8A4EDD78EC08B
:10057800F6FF8FC0F7FF00018E4B8F2BF86A08003B
:10058800F5CFABF00001AB51D8B4120088D591C0BB
:10059800D9FF92C0DAFFDF500001A06F0001914B34
:1005A800922B0001A0519EEC09F0D8B0F0D7000EB4
:1005B80000019C6F000E9D6F000E9E6F000E9F6FD6
:1005C800000E00019B6F2D0E0001A019D8A408D0C1
:1005D800010E00019B6F09D00001914B922B0DD0A9
:1005E8002B0E0001A019D8A408D091C0D9FF92C041
:1005F800DAFFDF500001A06FEFD7300E0001A0191D
:10060800D8A43CD091C0D9FF92C0DAFFDF500001D6
:10061800A06F0001914B922B00019551000196119A
:10062800D8B407D0100E0001951900019611D8A46E
:100638001AD0780E0001A019D8B405D0580E0001C0
:10064800A019D8A410D0000E0001966F100E956F57
:1006580091C0D9FF92C0DAFFDF500001A06F0001FE
:10066800914B922B0BD00001955100019611D8A403
:1006780005D0000E0001966F080E956F0001955188
:1006880000019611D8A405D0000E0001966F0A0E3D
:10069800956F0001A0518AEC09F0D8A008D000019C
:1006A800A0511EEC0AF0C90F0001A06F09D000018B
:1006B800A05102EC0AF0D8A04CD0300E0001A05F87
:1006C8000001A0510001976F986B0001955100013E
:1006D800975D00019851800A0001996F00019651B9
:1006E800800A00019959D8B034D095C089F096C0D5
:1006F8008AF00001000E8ABFFF0E8B6F8C6F9CC0C2
:100708008DF09DC08EF09EC08FF09FC090F068EC79
:1007180007F00001A0510001892500019C6F000E1F
:1007280000018A2100019D6F000E00018B2100014C
:100738009E6F000E00018C2100019F6F91C0D9FFB0
:1007480092C0DAFFDF500001A06F0001914B922B9D
:10075800A0D70001935100019411D8B412D0FF0E14
:10076800000191250001976FFF0E00019221000101
:10077800986F93C0D9FF94C0DAFF97C0DEFF98C086
:10078800DDFF00019B510001D8B41BD09CC097F03D
:100798009DC098F09EC099F09FC09AF00001971FE5
:1007A800981F991F9A1F972B000E982399239A2315
:1007B80097C091F098C092F099C093F09AC094F0C5
:1007C80012009CC091F09DC092F09EC093F09FC013
:1007D80094F01200000E0001986F050E976F53EC0D
:1007E80008F0CD0E00018E6FFF0E00018F6F4CECEC
:1007F80000F0000E0001986F050E976F53EC08F09B
:10080800B30E00018E6FFF0E00018F6F4CEC00F0ED
:100818003FEC0AF0860E00018E6FFF0E00018F6F0D
:100828004CEC00F03FEC0AF0A40E00018E6FFF0EB6
:1008380000018F6F4CEC00F03FEC0AF0950E0001C0
:100848008E6FFF0E00018F6F4CEC00F03FEC0AF04A
:10085800430E00018E6FFF0E00018F6F4CEC00F00D
:100868003FEC0AF0760E00018E6FFF0E00018F6FCD
:100878004CEC00F03FEC0AF0C10E00018E6FFF0E49
:1008880000018F6F4CEC00F03FEC0AF0E40E000121
:100898008E6FFE0E00018F6F4CEC00F03FEC0AF0FB
:1008A800D10E00018E6FFE0E00018F6F4CEC00F030
:1008B8003FEC0AF0F70E00018E6FFE0E00018F6FFD
:1008C8004CEC00F03FEC0AF00A0E00018E6FFF0EB0
:1008D80000018F6F4CEC00F03FEC0AF0300E000185
:1008E8008E6FFF0E00018F6F4CEC00F03FEC0AF0AA
:1008F80075EC09F0610E0001916F000E0001926F16
:10090800000E0001936F000E0001946F000E0001AD
:10091800966F000E956FCBEC02F091C0A1F092C0DB
:10092800A2F038EC0AF000EC08F029C091F02AC0D7
:1009380092F0030E0001946FE80E936FC4EC05F07B
:10094800D00E000191250001AC6F070E0001922125
:100958000001AD6F1D0E00018E6FFF0E00018F6F3D
:10096800ACC090F0ADC091F04CEC00F03FEC0AF058
:100978001200ABA202D0AB98AB882F50010D000E2D
:10098800F324D96E020EF420DA6EAECFDFFF2F2AE1
:100998007F0E2F6402D0000E2F6E2E2A000E166EC8
:1009A800000E156E3350D8A412001CD001EC09F0CB
:1009B800146E800E2C24D96E010E2D20DA6E14C010
:1009C800DFFF800E2C24D96E010E2D20DA6E0A0E60
:1009D800DE18D8A405D0000E166E010E156E05D0CF
:1009E8002C4A2D2A2E50D8A4E1D715041610D8A4C5
:1009F80012002C06D8A02D06800E2C24D96E010ECC
:100A08002D20DA6E000EDF6E000E346EE50E016EDC
:100A1800FF0E026E800E036E010E046E62EC06F08D
:100A280001500210D8A402D0050E2BD0800E106EF3
:100A3800010E116EEF0E126EFF0E136EAAEC06F089
:100A480010501110D8B40ED0340E01018A19D8A450
:100A580007D0330E01018B19D8A402D0040E11D08F
:100A6800030E0FD0800E016E010E026ED90E036EBA
:100A7800FF0E046E62EC06F001500210D8A403D0F9
:100A880010D0346E10D0800E016E010E026EE20E90
:100A9800036EFF0E046E62EC06F001500210D8A43B
:100AA80002D0010EEED7000E2D6E000E2C6E010E38
:100AB800336E120011EC0AF0F28EF28CEEEC03F0B9
:100AC80060EC09F01BEC09F0880E30EC07F0000E22
:100AD80030EC07F01BEC09F0890E30EC07F0010E42
:100AE80015EC06F00001AF6F000E15EC06F00001E2
:100AF800B06FE4EC09F00001AF510001B01900013A
:100B0800AE6FAD0E00018E6FFE0E00018F6F610E8D
:100B18000001906F000E0001916F60C092F000011B
:100B2800936BAFC094F00001956BB0C096F00001D4
:100B3800976BAEC098F00001996B4CEC00F0000187
:100B4800602B3FEC0AF03FEC0AF0000E0001986FB2
:100B5800640E976F53EC08F000EC08F029C091F090
:100B68002AC092F0000E0001946F030E936FC4EC3C
:100B780005F091C097F092C098F053EC08F0A2D716
:100B8800000E0001966F000192AF08D00001916D30
:100B9800921FD8B0922B010E0001966F000194AFFE
:100BA80005D00001936D941FD8B0942B0001935188
:100BB80000019411D8B426D0010E0001956F06D01B
:100BC8000001D890933794370001952B000194AF1A
:100BD800F7D7000193510001915D00019451000184
:100BE8009259D8A008D0000193510001915F0001EB
:100BF80094510001925B0001D89094339333000123
:100C0800952FE7D7000196510001D8B405D000010F
:100C1800916D921FD8B0922B91C091F092C092F032
:100C28001200256E000E266E5FEC0AF0000E276E8D
:100C3800070E276401D01FD02750D8B402D0D8900F
:100C4800263663EC0AF06A0EE82EFED700D045EC93
:100C58000AF00009D8B402D0268001D02690350EBB
:100C6800E82EFED700F065EC0AF06A0EE82EFED7F3
:100C780000D0272ADDD75DEC0AF02550D8B40ED075
:100C880061EC0AF063EC0AF06A0EE82EFED700D099
:100C980065EC0AF06A0EE82EFED70DD05BEC0AF080
:100CA80063EC0AF06A0EE82EFED700D065EC0AF075
:100CB8006A0EE82EFED700D02650120004D0014A52
:100CC800022A034A042A01C0F6FF02C0F7FF000EF9
:100CD800F86E0F0EF76403D00800F55005D0F6CF74
:100CE800E1FFF7CFE2FFE750056E03C0F6FF04C04F
:100CF800F7FF000EF86E0F0EF76403D00800F550EA
:100D080005D0F6CFE1FFF7CFE2FFE7500008052452
:100D1800066E0650D8A414D001C0F6FF02C0F7FF33
:100D2800000EF86E0F0EF76403D00800F55005D0DA
:100D3800F6CFE1FFF7CFE2FFE7500009D8A4BFD70D
:100D48000650016E026A01BE0206120032D010C0BF
:100D580007F011C008F012C009F013C00AF012C061
:100D680001F013C002F075EC08F001C00BF002C0EE
:100D78000CF0EDEC06F007500810D8A405D010C010
:100D880010F011C011F01200010E1024016E000EB7
:100D98001120026E12C0F6FF13C0F7FFF86A0800B0
:100DA800F550036E046AB2EC08F001C010F002C0FE
:100DB80011F010501110D8B407D010C0D9FF11C0CD
:100DC800DAFFDF50D8A4C3D7000E106E000E116EE4
:100DD800120035D007C0D9FF08C0DAFFDF50D8B4F9
:100DE80010D007C0D9FF08C0DAFFDF500D6E09C068
:100DF800F6FF0AC0F7FFF86A0800F5500D18D8B4D6
:100E08001AD009C0F6FF0AC0F7FFF86A0800F550C3
:100E18000D6E0E6A0D1E0E1E0D4A0E2A07C0D9FF52
:100E280008C0DAFFDF500F6E0F500D24076E000E5A
:100E38000E20086E1200074A082A094A0A2A0B06D9
:100E4800D8A00C060B28C6E10C28D8A4C3D7000EDE
:100E5800086E000E076E1200256E5DEC0AF0000E9B
:100E6800266E070E266401D01ED025AE06D05BEC98
:100E78000AF06A0EE82EFED705D061EC0AF06A0E79
:100E8800E82EFED700D063EC0AF06A0EE82EFED7F3
:100E980000D065EC0AF06A0EE82EFED700D0D89094
:100EA8002536262ADED75FEC0AF063EC0AF06A0ED4
:100EB800E82EFED700D065EC0AF06A0EE82EFED7C1
:100EC80000D05DEC0AF01200000E256E000E266EB2
:100ED800000E276E000E286E000189A10CD00001BB
:100EE8008D51252600018E51262200018F5127227F
:100EF8000001905128220001D8908D378E378F3706
:100F080090370001D8908C338B338A3389330001B2
:100F1800895100018A1100018B1100018C11D8A49C
:100F2800DBD725C089F026C08AF027C08BF028C0FF
:100F38008CF0120002EE00F0800EEE6AE806FDE189
:100F480001EE00F011EE00F0EE6AE550E150FCE130
:100F5800E250FAE100EE60F0290EEE6AE806FDE1E3
:100F680000EE2CF00A0EEE6AE806FDE1AA0EF66E17
:100F7800140EF76E000EF86E00EE36F010EE04F068
:100F88000900F5CFEEFFE550E150FAE13B903B92C6
:100F980000015EEF05F000018B5100018C11D8B4FF
:100FA80026D0010E00018D6F06D00001D8908B3736
:100FB8008C3700018D2B00018CAFF7D700018B51C6
:100FC8000001895D00018C5100018A59D8A008D020
:100FD80000018B510001895F00018C5100018A5B7F
:100FE8000001D8908C338B3300018D2FE7D789C04F
:100FF80089F08AC08AF0120036C089F037C08AF0BA
:1010080038C08BF039C08CF06D0E00018D6F4E0E1C
:101018008E6FC60E8F6F410E906F68EC07F089C017
:1010280036F08AC037F08BC038F08CC039F0390EF2
:101038003626300E3722000E3822000E3922FF0ED7
:101048003814296E7F0E39142A6E1200000E2A6E8B
:10105800000E296E27502810D8B41CD0010E2B6E14
:1010680004D0D890273628362B2A28AEFAD7D8901D
:1010780029362A362750255C28502658D8A005D06E
:101088002750255E2850265A2980D89028322732A2
:101098002B2EEDD729C025F02AC026F01200000E0D
:1010A8002B6E0AD0680E0001996FE40EE82EFED769
:1010B800992FFCD700D02B2A2B500001996F9A6BDF
:1010C800000197510001995D00019A51800A0001C1
:1010D8009B6F00019851800A00019B59D8B01200FB
:1010E800E1D701C005F002C006F002D0054A062A81
:1010F80005C0F6FF06C0F7FFF86A0800F5500009BA
:10110800D8A4F4D701C003F002C004F0031E041EE3
:10111800034A042A05500324016E06500420026E77
:101128001200256E3A50D8B4FDD79DB803D025C01B
:10113800ADFF12D09D983150010D000EF324D96EE9
:10114800010EF420DA6E25C0DFFF312A7F0E3164EC
:1011580002D0000E316E3A069D88120001C0D9FFF8
:1011680002C0DAFF0350DE18D8A405D001C001F090
:1011780002C002F0120001C0D9FF02C0DAFF014A22
:10118800022ADF50D8A4EAD7000E016E000E026EC4
:101198001200000E8A6E000E896E000E8B6E2F0EE6
:1011A8000F01386F3E0E0F01396F380E0F013A6F7D
:1011B800C80E936EF90E946EFE0E616EEF0E926E6F
:1011C800F18EF29612009D9A9D98000EB86E900EC0
:1011D800AB6E200EAC6E100EAF6E000EB06E000E31
:1011E800316E000E326E800E3A6E000E2F6E000EBB
:1011F800306E000E2E6E9D8A1200000E016E2E506B
:10120800D8B4FDD79D9A3050010D000EF324D96E45
:10121800020EF420DA6EDF50016E302A7F0E306441
:1012280002D0000E306E2E069D8A015012005DEC31
:101238000AF05BEC0AF063EC0AF06A0EE82EFED7BF
:1012480000D061EC0AF06A0EE82EFED700D065ECFB
:101258000AF06A0EE82EFED700D0120025C029F049
:1012680026C02AF004D0294A2A2A274A282A27C031
:10127800D9FF28C0DAFF29C0E1FF2AC0E2FFDFCF8B
:10128800E7FFE750D8B41200EED7800E3A6012D0CC
:101298003250010D000EF324D96E010EF420DA6EDF
:1012A800DF50AD6E322A7F0E326402D0000E326EED
:1012B8003A2A12009D9812000F013A99D4EC09F0CD
:1012C8001BEC09F0880E30EC07F0010E30EC07F04B
:1012D800C40E30EC07F0100E30EC07F0E4EC09F027
:1012E8001200660E00018E6FFF0E00018F6F4CEC2E
:1012F80000F03FEC0AF0610E256E000E266E800E9F
:10130800276E010E286E32EC09F012002A6E010ECB
:10131800296E7B0E2A6003D0610E2A6007D02A50FE
:10132800F3EC09F0D8B002D0000E296E29C028F0DD
:1013380028301200276E010E266E200E2718D8B40A
:1013480008D00E0E276003D0090E276002D0000EC9
:10135800266E26C025F02530120025502702F3CF2F
:1013680029F0F4CF2AF025502802F3502A262650D7
:101378002702F3502A2629C025F02AC026F0120099
:101388000E0EBD6E000EB66E820EB76E010EB96EF1
:10139800000EBE6E000EBF6EFC0E0F014917120044
:1013A8005DEC0AF059EC0AF063EC0AF05BEC0AF029
:1013B800D00E256ECA0EE82EFED7252EFCD71200B9
:1013C8005DEC0AF063EC0AF06A0EE82EFED700D056
:1013D8005BEC0AF06A0EE82EFED700D01200276EEA
:1013E800000E266E5B0E276005D0400E276402D0E3
:1013F800010E266E26C025F025301200276E000E3D
:10140800266E3A0E276005D02F0E276402D0010EF3
:10141800266E26C025F0253012004BEC0AF0CDECE4
:1014280008F031EC0AF0C4EC09F028EC0AF0E7EC1B
:1014380008F01200256E7B0E256004D0600E25642E
:1014480001D0259A25501200000EBA6EBB68000E16
:10145800BC6E9E9257EC0AF01200700ED36E040E0A
:10146800D26E400E9B6E1200A1C036F0A2C037F0BB
:10147800386A396A12003304D8A4FDD7000E336ED7
:10148800120082A802D0010E1200000E1200D09E97
:10149800F1949F989F9A1200266E265095EC08F0BA
:1014A800120001000000BA841200949612008B8882
:1014B800120094981200948812008B9812008B8660
:0614C80012008B961200D9
:10FE9A000001000A006400E80310270100100000B6
:10FEAA00010010726164696F2074782034312573FF
:10FEBA0025303258253032582530325825303258BC
:10FECA00303030300D0A00726164696F20736574D6
:10FEDA00206277203530300D0A00726164696F2024
:10FEEA0073657420707772202D320D0A0072616476
:10FEFA00696F20736574207366207366370D0A0074
:10FF0A00726164696F2073657420637220342F38BC
:10FF1A000D0A00726164696F2073657420776474D6
:10FF2A002025640D0A00726164696F20736574206C
:10FF3A00637263206F6E0D0A00726164696F2067D5
:10FF4A0065742070726C656E0D0A0030313233347C
:10FF5A003536373839414243444546007379732070
:10FF6A006765742068776575690D0A00726164694E
:10FF7A006F20676574207077720D0A007261646978
:10FF8A006F206765742073660D0A00726164696F79
:10FF9A00206765742063720D0A00726164696F20BC
:10FFAA006765742062770D0A007379732067657438
:10FFBA00207665720D0A006D616320706175736544
:10FFCA000D0A007379732072657365740D0A0072E5
:10FFDA006164696F5F74785F6F6B00726164696FE7
:10FFEA005F65727200726164696F5F727800286E71
:06FFFA00756C6C2900008B
:020000040020DA
:08000000FFFFFFFFFFFFFFFF00
:020000040030CA
:0E000000FF281F3CFFBF81FF0FC00FE00F4025
:00000001FF
