:040000004AEF00F0D3
:100008003B82FACF17F0FBCF18F0E9CF19F0EACF0F
:100018001AF0E1CF1BF0E2CF1CF0D9CF1DF0DACFF8
:100028001EF0F3CF1FF0F4CF20F0F6CF21F0F7CF7A
:1000380022F0F8CF23F0F5CF24F09DB89EA803D086
:1000480084EC08F005D09DBA9EAA02D010EC04F00A
:1000580024C0F5FF23C0F8FF22C0F7FF21C0F6FF38
:1000680020C0F4FF1FC0F3FF1EC0DAFF1DC0D9FF78
:100078001CC0E2FF1BC0E1FF1AC0EAFF19C0E9FF7C
:1000880018C0FBFF17C0FAFF3B9211003FEF07F0C3
:100098000101A86F000E0101AA6F000EA96F000EE2
:1000A8000101B16F000EB26F000EB36F000EB46F96
:1000B800000E0101AD6F000EAE6F000EAF6F000EA7
:1000C800B06F0001F551A8C1F6F00001F76BF6C05A
:1000D800F7F00001F66B0001F6110101AB6F0001AA
:1000E800F7510101AC6FFF0E0001F66F0F0E000112
:1000F800F76FABC1F8F0ACC1F9F00001F65100019F
:10010800F8170001F7510001F917F8C0B1F1F9C06B
:10011800B2F10101000EB2BFFF0EB36FB46FABC1F5
:10012800F6F0ACC1F7F00C0E0001F86F0001F735DE
:10013800F733F6330001F82FF9D70F0E0001F61543
:100148000101A96F0101AA6BD9D0B1C1F6F0B2C102
:10015800F7F0B3C1F8F0B4C1F9F0070E06D000010A
:10016800D890F933F833F733F633E82EF8D7BDD003
:10017800B1C1F6F0B2C1F7F0B3C1F8F0B4C1F9F00B
:10018800060E06D00001D890F933F833F733F6336A
:10019800E82EF8D7AAD0B1C1F6F0B2C1F7F0B3C1D2
:1001A800F8F0B4C1F9F0050E06D00001D890F93383
:1001B800F833F733F633E82EF8D797D0B1C1F6F015
:1001C800B2C1F7F0B3C1F8F0B4C1F9F0040E06D02B
:1001D8000001D890F933F833F733F633E82EF8D71F
:1001E80084D0B1C1F6F0B2C1F7F0B3C1F8F0B4C130
:1001F800F9F0030E06D00001D890F933F833F7333D
:10020800F633E82EF8D771D0B1C1F6F0B2C1F7F0E5
:10021800B3C1F8F0B4C1F9F00001D890F933F8335C
:10022800F733F63362D0B1C1ADF1B2C1AEF1B3C1AB
:10023800AFF1B4C1B0F191D0D8900101B13501014D
:10024800AD6F0101B2350101AE6F0101B335010196
:10025800AF6F0101B4350101B06F7FD0B1C1F6F0C5
:10026800B2C1F7F0B3C1F8F0B4C1F9F0020ED890FA
:100278000001F637F737F837F937E82EF8D735D0D1
:10028800B1C1F6F0B2C1F7F0B3C1F8F0B4C1F9F0FA
:10029800030ED8900001F637F737F837F937E82E0C
:1002A800F8D723D0B1C1F6F0B2C1F7F0B3C1F8F076
:1002B800B4C1F9F0040ED8900001F637F737F837D3
:1002C800F937E82EF8D711D0B1C1F6F0B2C1F7F07E
:1002D800B3C1F8F0B4C1F9F0050ED8900001F637B3
:1002E800F737F837F937E82EF8D7F6C0ADF1F7C089
:1002F800AEF1F8C0AFF1F9C0B0F12FD0A9C1F6F056
:10030800AAC1F7F00001F751000AD8A426D00001CD
:10031800F651000AD8B419D7010AD8B429D7030A64
:10032800D8B439D7010AD8B449D7070AD8B459D7A5
:10033800010AD8B469D7030AD8B475D7010AD8B462
:100348007BD70F0AD8B48AD7010AD8B499D7030A39
:10035800D8B4A8D7010AD8B4B7D7F70E0001E76F09
:10036800FF0E0001E86FADC1E9F0AEC1EAF0AFC120
:10037800EBF0B0C1ECF0C2EC01F01200E90E0001A4
:10038800EE6F000E0001EF6F14D1250E0001F41975
:10039800D8B405D00001F4515EEC09F00AD1000E82
:1003A8000001F16F03D00001F18F1AD0E7C0F6FF0A
:1003B800E8C0F7FF0001E74BE82BF86A0800F5CF23
:1003C800F4F00001F451000AD8B41200640AD8B459
:1003D80007D00D0AD8B404D0110AD8B4E4D7E9D0AC
:1003E8000001F1BF19D0EEC0D9FFEFC0DAFFDECFB0
:1003F800F2F0DDCFF3F0020E0001EE27000EEF233E
:100408000001F3AF59D0030E0001F1130001F26DA2
:10041800F31FD8B0F32B50D0EEC0D9FFEFC0DAFFEE
:10042800DECFF2F0DDCFF3F0020E0001EE27000E72
:10043800EF2342D0010E0001F46F050E0001F419FC
:10044800D8B443D00001F451020DA30EF324F66E84
:10045800FE0EF420F76EF86A000EF8220900F55037
:100468000001F25D0900F5500001F359D8A02DD024
:100478000001F42BE2D7010E0001F46F040E000115
:10048800F419D8B422D00001F451020DAD0EF324B2
:10049800F66EFE0EF420F76EF86A000EF8220900D8
:1004A800F5500001F25D0900F5500001F359D8A09C
:1004B8000CD00001F42BE2D70001F151800B000AA7
:1004C800D8B4B8D7800AD8B4D6D7F1C02AF0030E6A
:1004D8002A16D8B403D02D0E5EEC09F0F4C0F0F063
:1004E80062D00001F051020DA30EF324F66EFE0E49
:1004F800F420F76EF86A000EF8220900F5CF27F00D
:100508000A00F5CF28F0F2C025F0F3C026F0E2EC9F
:1005180006F025C0E3F026C0E4F0000E0001E66F07
:100528000A0EE56F11EC07F00001E351300F0001EE
:10053800F46F35D0F2C025F0F3C026F00001F05179
:10054800020DAD0EF324F66EFE0EF420F76EF86A77
:10055800000EF8220900F5CF27F00A00F5CF28F0A1
:10056800E2EC06F025500F0B0001ED6F0001ED5194
:10057800010D4C0EF324F66EFF0EF420F76EF86AA8
:10058800000EF8220800F5CFF4F009D00001F1516F
:10059800800B000AD8B4A5D7800AD8B4CBD70001FD
:1005A800F4515EEC09F00001F0070001F029D8A42D
:1005B800EDD7E7C0F6FFE8C0F7FF0001E74BE82BEF
:1005C800F86A0800F5CFF4F00001F451D8B412002D
:1005D800DCD6E8C0D9FFE9C0DAFFDF500001F76FC9
:1005E8000001E84BE92B0001F751C4EC08F0D8B042
:1005F800F0D7000E0001F36F000EF46F000EF56FD8
:10060800000EF66F000E0001F26F2D0E0001F719B3
:10061800D8A408D0010E0001F26F09D00001E84B00
:10062800E92B0DD02B0E0001F719D8A408D0E8C08B
:10063800D9FFE9C0DAFFDF500001F76FEFD7300EBE
:100648000001F719D8A43CD0E8C0D9FFE9C0DAFF07
:10065800DF500001F76F0001E84BE92B0001EC5176
:100668000001ED11D8B407D0100E0001EC190001FB
:10067800ED11D8A41AD0780E0001F719D8B405D016
:10068800580E0001F719D8A410D0000E0001ED6F24
:10069800100EEC6FE8C0D9FFE9C0DAFFDF500001A7
:1006A800F76F0001E84BE92B0BD00001EC5100017A
:1006B800ED11D8A405D0000E0001ED6F080EEC6F07
:1006C8000001EC510001ED11D8A405D0000E000185
:1006D800ED6F0A0EEC6F0001F751B0EC08F0D8A0EE
:1006E80008D00001F75131EC09F0C90F0001F76F8C
:1006F80009D00001F751F7EC08F0D8A04CD0300E23
:100708000001F75F0001F7510001EE6FEF6B000188
:10071800EC510001EE5D0001EF51800A0001F06F1D
:100728000001ED51800A0001F059D8B034D0ECC076
:10073800E0F0EDC0E1F00001000EE1BFFF0EE26F56
:10074800E36FF3C0E4F0F4C0E5F0F5C0E6F0F6C0FE
:10075800E7F0ACEC06F00001F7510001E0250001DC
:10076800F36F000E0001E1210001F46F000E00019B
:10077800E2210001F56F000E0001E3210001F66F90
:10078800E8C0D9FFE9C0DAFFDF500001F76F0001C8
:10079800E84BE92BA0D70001EA510001EB11D8B4CE
:1007A80012D0FF0E0001E8250001EE6FFF0E0001D8
:1007B800E9210001EF6FEAC0D9FFEBC0DAFFEEC014
:1007C800DEFFEFC0DDFF0001F2510001D8B41BD0FD
:1007D800F3C0EEF0F4C0EFF0F5C0F0F0F6C0F1F0C1
:1007E8000001EE1FEF1FF01FF11FEE2B000EEF238D
:1007F800F023F123EEC0E8F0EFC0E9F0F0C0EAF032
:10080800F1C0EBF01200F3C0E8F0F4C0E9F0F5C075
:10081800EAF0F6C0EBF01200ABA202D0AB98AB88BE
:100828002E50010D000EF324D96E020EF420DA6E5C
:10083800AECFDFFF2E2A7F0E2E6402D0000E2E6E62
:100848002D2A000E166E000E156E3350D8A4120015
:100858001CD03CEC08F0146E600E2B24D96E000EF0
:100868002C20DA6E14C0DFFF600E2B24D96E000E28
:100878002C20DA6E0A0EDE18D8A405D0000E166EEB
:10088800010E156E05D02B4A2C2A2D50D8A4E1D77D
:1008980015041610D8A412002B06D8A02C06600E3A
:1008A8002B24D96E000E2C20DA6E000EDF6E000E9F
:1008B800346EDC0E016EFF0E026E600E036E000ECB
:1008C800046EA6EC05F001500210D8A402D0050E63
:1008D8002BD0600E106E000E116EE60E126EFF0E1B
:1008E800136EEEEC05F010501110D8B40ED0340E83
:1008F80000016A19D8A407D0330E00016B19D8A4D7
:1009080002D0040E11D0030E0FD0600E016E000E3F
:10091800026ED00E036EFF0E046EA6EC05F00150B9
:100928000210D8A403D010D0346E10D0600E016E1F
:10093800000E026ED90E036EFF0E046EA6EC05F0D3
:1009480001500210D8A402D0010EEED7000E2C6E72
:10095800000E2B6E010E336E120024EC09F0F28E9D
:10096800F28C0F013A99E7EC08F06DEC08F0880E6C
:1009780074EC06F0010E74EC06F0C40E74EC06F08C
:10098800100E74EC06F015EC09F0150E0001FA6F64
:10099800C60EE82EFED7FA2FFCD700D06DEC08F073
:1009A800880E74EC06F07E0E74EC06F06DEC08F020
:1009B800890E74EC06F0010E59EC05F00001FD6F8C
:1009C800000E59EC05F00001FE6F15EC09F0EF0E72
:1009D8000001E76FFF0E0001E86FFDC0E9F00001BC
:1009E800EA6BFEC0EBF00001EC6BC2EC01F0FEC05C
:1009F800F5F00001FD514CEC00F0000E266EC80E1B
:100A0800256EEEEC07F0CAD7000E0001ED6F00016D
:100A1800E9AF08D00001E86DE91FD8B0E92B010E55
:100A28000001ED6F0001EBAF05D00001EA6DEB1F8F
:100A3800D8B0EB2B0001EA510001EB11D8B426D055
:100A4800010E0001EC6F06D00001D890EA37EB37B1
:100A58000001EC2B0001EBAFF7D70001EA510001D0
:100A6800E85D0001EB510001E959D8A008D0000168
:100A7800EA510001E85F0001EB510001E95B000168
:100A8800D890EB33EA330001EC2FE7D70001ED51A2
:100A98000001D8B405D00001E86DE91FD8B0E92BF2
:100AA800E8C0E8F0E9C0E9F01200256E000E266EF5
:100AB8006CEC09F0000E276E070E276401D01FD0DA
:100AC8002750D8B402D0D890263276EC09F0150E0B
:100AD800E82EFED700F058EC09F00009D8B402D08F
:100AE800268E01D0269E350EE82EFED700F070EC3B
:100AF80009F06A0EE82EFED700D0272ADDD774EC5D
:100B080009F02550D8B40ED06EEC09F076EC09F057
:100B18006A0EE82EFED700D070EC09F06A0EE82EB7
:100B2800FED70DD072EC09F076EC09F06A0EE82ECB
:100B3800FED700D070EC09F06A0EE82EFED700D080
:100B48002650120004D0014A022A034A042A01C08E
:100B5800F6FF02C0F7FF000EF86E0F0EF76403D021
:100B68000800F55005D0F6CFE1FFF7CFE2FFE750D8
:100B7800056E03C0F6FF04C0F7FF000EF86E0F0EF7
:100B8800F76403D00800F55005D0F6CFE1FFF7CFA2
:100B9800E2FFE75000080524066E0650D8A414D0DA
:100BA80001C0F6FF02C0F7FF000EF86E0F0EF764E3
:100BB80003D00800F55005D0F6CFE1FFF7CFE2FFEC
:100BC800E7500009D8A4BFD70650016E026A01BEDB
:100BD8000206120032D010C007F011C008F012C08F
:100BE80009F013C00AF012C001F013C002F096EC2D
:100BF80007F001C00BF002C00CF031EC06F0075012
:100C08000810D8A405D010C010F011C011F01200BF
:100C1800010E1024016E000E1120026E12C0F6FFA4
:100C280013C0F7FFF86A0800F550036E046AD3ECA6
:100C380007F001C010F002C011F010501110D8B424
:100C480007D010C0D9FF11C0DAFFDF50D8A4C3D72E
:100C5800000E106E000E116E120035D007C0D9FFBD
:100C680008C0DAFFDF50D8B410D007C0D9FF08C0D9
:100C7800DAFFDF500D6E09C0F6FF0AC0F7FFF86A09
:100C88000800F5500D18D8B41AD009C0F6FF0AC0EC
:100C9800F7FFF86A0800F5500D6E0E6A0D1E0E1E5D
:100CA8000D4A0E2A07C0D9FF08C0DAFFDF500F6EC1
:100CB8000F500D24076E000E0E20086E1200074A12
:100CC800082A094A0A2A0B06D8A00C060B28C6E1EE
:100CD8000C28D8A4C3D7000E086E000E076E1200A9
:100CE800256E74EC09F0000E266E070E266401D0FE
:100CF8001ED025AE06D072EC09F06A0EE82EFED79B
:100D080005D06EEC09F06A0EE82EFED700D076EC1E
:100D180009F06A0EE82EFED700D070EC09F06A0ED2
:100D2800E82EFED700D0D8902536262ADED76CECE0
:100D380009F076EC09F06A0EE82EFED700D070ECC8
:100D480009F06A0EE82EFED700D074EC09F0120004
:100D5800000E256E000E266E000E276E000E286E01
:100D68000001E0A10CD00001E45125260001E55165
:100D780026220001E65127220001E751282200011E
:100D8800D890E437E537E637E7370001D890E33302
:100D9800E233E133E0330001E0510001E1110001E9
:100DA800E2110001E311D8A4DBD725C0E0F026C08A
:100DB800E1F027C0E2F028C0E3F01200000E0001C5
:100DC800E26F000EE16F27502810D8B421D0010E31
:100DD8000001E06F05D0D890273628360001E02BB7
:100DE80028AEF9D70001D890E137E2372750255CC3
:100DF80028502658D8A006D02750255E2850265AB5
:100E08000001E181D890283227320001E02FEAD78B
:100E1800E1C025F0E2C026F012000001E551000112
:100E2800E611D8B423D0010E296E05D00001D89060
:100E3800E537E637292A0001E6AFF8D70001E55182
:100E48000001E35D0001E6510001E459D8A008D093
:100E58000001E5510001E35F0001E6510001E45B98
:100E68000001D890E633E533292EE8D7E3C0E3F054
:100E7800E4C0E4F0120002EE00F0800EEE6AE8062C
:100E8800FDE101EE00F0A80EEE6AE806FDE100EED5
:100E980060F0800EEE6AE806FDE100EE2BF00B0E26
:100EA800EE6AE806FDE1D00EF66E120EF76E000E41
:100EB800F86E00EE36F010EE04F00900F5CFEEFF04
:100EC800E550E150FAE13B903B920001B1EF04F0AC
:100ED80036C0E0F037C0E1F038C0E2F039C0E3F0E6
:100EE8006D0E0001E46F4E0EE56FC60EE66F410E03
:100EF800E76FACEC06F0E0C036F0E1C037F0E2C0D6
:100F080038F0E3C039F0390E3626300E3722000E9D
:100F18003822000E3922FF0E3814296E7F0E39143C
:100F28002A6E120001C005F002C006F002D0054A80
:100F3800062A05C0F6FF06C0F7FFF86A0800F55054
:100F48000009D8A4F4D701C003F002C004F0031EBE
:100F5800041E034A042A05500324016E0650042087
:100F6800026E1200256E3A50D8B4FDD79DB803D052
:100F780025C0ADFF12D09D983050010D000EF3240E
:100F8800D96E010EF420DA6E25C0DFFF302A7F0EFD
:100F9800306402D0000E306E3A069D88120001C0FF
:100FA800D9FF02C0DAFF0350DE18D8A405D001C06B
:100FB80001F002C002F0120001C0D9FF02C0DAFF3E
:100FC800014A022ADF50D8A4EAD7000E016E000EAB
:100FD800026E1200000E2A6E09D0680E276EE40E0B
:100FE800E82EFED7272EFCD700D02A2A2A50276EB3
:100FF800286A2550275C2850800A296E2650800AC6
:101008002958D8B01200E9D7000E8A6E000E896EF2
:10101800000E8B6E2F0E0F01386F3E0E0F01396FC9
:10102800380E0F013A6FC80E936EF90E946EFE0ECD
:10103800616EEF0E926EF18EF29612009D9A9D9857
:10104800000EB86E900EAB6E200EAC6E100EAF6E2A
:10105800000EB06E000E306E000E316E800E3A6ECD
:10106800000E2E6E000E2F6E000E2D6E9D8A120041
:10107800000E016E2D50D8B4FDD79D9A2F50010D4A
:10108800000EF324D96E020EF420DA6EDF50016EE2
:101098002F2A7F0E2F6402D0000E2F6E2D069D8AF8
:1010A8000150120025C029F026C02AF004D0294A90
:1010B8002A2A274A282A27C0D9FF28C0DAFF29C0A8
:1010C800E1FF2AC0E2FFDFCFE7FFE750D8B4120004
:1010D800EED774EC09F072EC09F076EC09F06A0EC0
:1010E800E82EFED700D06EEC09F06A0EE82EFED787
:1010F80000D070EC09F06A0EE82EFED700D012007E
:10110800800E3A6012D03150010D000EF324D96ED2
:10111800010EF420DA6EDF50AD6E312A7F0E316495
:1011280002D0000E316E3A2A12009D9812005D0E10
:101138000001E76FFF0E0001E86FC2EC01F052EC0E
:1011480009F0800E256E010E266E600E276E000EC9
:10115800286E56EC08F012002A6E010E296E7B0EDE
:101168002A6003D0610E2A6007D02A5006EC09F0E5
:10117800D8B002D0000E296E29C028F028301200FD
:10118800276E010E266E200E2718D8B408D00E0E32
:10119800276003D0090E276002D0000E266E26C0F5
:1011A80025F0253012000E0EBD6E000EB66E820EB2
:1011B800B76E010EB96E000EBE6E000EBF6EFC0E4D
:1011C8000F014917120074EC09F078EC09F076EC7D
:1011D80009F072EC09F0D00E256ECA0EE82EFED783
:1011E800252EFCD71200276E000E266E3A0E2760B9
:1011F80005D02F0E276402D0010E266E26C025F0DA
:1012080025301200276E000E266E5B0E276005D073
:10121800400E276402D0010E266E26C025F0253028
:10122800120074EC09F076EC09F06A0EE82EFED78D
:1012380000D072EC09F06A0EE82EFED700D012003A
:1012480063EC09F008EC08F04BEC09F0D7EC08F077
:101258003BEC09F022EC08F01200256E7B0E2560AD
:1012680004D0600E256401D0259A25501200000E86
:10127800BA6EBB68000EBC6E9E926AEC09F0120052
:10128800F8C036F0F9C037F0386A396A1200700EC3
:10129800D36E040ED26E400E9B6E12003304D8A497
:1012A800FDD7000E336E120082A802D0010E120084
:1012B800000E1200266E2650B6EC07F01200D09EE3
:1012C800F1949F989F9A120001000000BA841200BE
:1012D800948812008B9812008B9612008B8812004B
:0C12E800949812008B861200949612005D
:10FEA2000001000A006400E80310270100100000AE
:10FEB20001001073797320736C65657020313030E6
:10FEC2003030300D0A00726164696F2073657420EE
:10FED2006277203530300D0A00726164696F2073D9
:10FEE200657420707772202D320D0A007261646988
:10FEF2006F20736574207366207366370D0A007273
:10FF02006164696F2073657420637220342F380D29
:10FF12000A00726164696F207365742077647420CB
:10FF220025640D0A00726164696F20736574206331
:10FF32007263206F6E0D0A00726164696F206765DB
:10FF4200742070726C656E0D0A00303132333435B4
:10FF52003637383961626364656600737973206786
:10FF620065742068776575690D0A00726164696F4E
:10FF720020676574207077720D0A00726164696F80
:10FF8200206765742073660D0A00726164696F20D0
:10FF92006765742063720D0A00726164696F20677D
:10FFA20065742062770D0A00737973206765742087
:10FFB2007665720D0A006D61632070617573650D5F
:10FFC2000A007379732072657365740D0A00726199
:10FFD20064696F5F74785F6F6B00726164696F5FF1
:10FFE20065727200726164696F5F727800257820B1
:0DFFF20025780D0A003E2025640D0A000050
:020000040020DA
:08000000FFFFFFFFFFFFFFFF00
:020000040030CA
:0E000000FF281F3CFFBF81FF0FC00FE00F4025
:00000001FF
