:040000004AEF00F0D3
:100008003B82FACF17F0FBCF18F0E9CF19F0EACF0F
:100018001AF0E1CF1BF0E2CF1CF0D9CF1DF0DACFF8
:100028001EF0F3CF1FF0F4CF20F0F6CF21F0F7CF7A
:1000380022F0F8CF23F0F5CF24F09DB89EA803D086
:1000480018EC0FF005D09DBA9EAA02D0ABEC0BF0CD
:1000580024C0F5FF23C0F8FF22C0F7FF21C0F6FF38
:1000680020C0F4FF1FC0F3FF1EC0DAFF1DC0D9FF78
:100078001CC0E2FF1BC0E1FF1AC0EAFF19C0E9FF7C
:1000880018C0FBFF17C0FAFF3B9211005BEF0EF0A0
:101000000001000A006400E803102701001000003E
:10101000010010303132333435363738396162638C
:1010200064656600737973206765742068776575F9
:10103000690D0A00726164696F5F74785F6F6B009D
:10104000726164696F5F65727200726164696F5F7B
:1010500072780025782025780D0A003E2025640D41
:031060000A000083
:101064000101A86F000E0101AA6F000EA96F000E06
:101074000101B16F000EB26F000EB36F000EB46FBA
:10108400000E0101AD6F000EAE6F000EAF6F000ECB
:10109400B06F2E50A8C1F2F00001F36BF2C0F3F070
:1010A4000001F26B0001F2110101AB6F0001F35179
:1010B4000101AC6FFF0E0001F26F0F0E0001F36F20
:1010C400ABC1F4F0ACC1F5F00001F2510001F4172A
:1010D4000001F3510001F517F4C0B1F1F5C0B2F10C
:1010E4000101000EB2BFFF0EB36FB46FABC1F2F0DB
:1010F400ACC1F3F00C0E0001F46F0001F335F333CF
:10110400F2330001F42FF9D70F0E0001F21501019B
:10111400A96F0101AA6BD9D0B1C1F2F0B2C1F3F049
:10112400B3C1F4F0B4C1F5F0070E06D00001D890B5
:10113400F533F433F333F233E82EF8D7BDD0B1C12D
:10114400F2F0B2C1F3F0B3C1F4F0B4C1F5F0060E9D
:1011540006D00001D890F533F433F333F233E82E9C
:10116400F8D7AAD0B1C1F2F0B2C1F3F0B3C1F4F030
:10117400B4C1F5F0050E06D00001D890F533F43370
:10118400F333F233E82EF8D797D0B1C1F2F0B2C1FD
:10119400F3F0B3C1F4F0B4C1F5F0040E06D00001CD
:1011A400D890F533F433F333F233E82EF8D784D000
:1011B400B1C1F2F0B2C1F3F0B3C1F4F0B4C1F5F0CF
:1011C400030E06D00001D890F533F433F333F23331
:1011D400E82EF8D771D0B1C1F2F0B2C1F3F0B3C1C7
:1011E400F4F0B4C1F5F00001D890F533F433F333DF
:1011F400F23362D0B1C1ADF1B2C1AEF1B3C1AFF15E
:10120400B4C1B0F191D0D8900101B1350101AD6FF5
:101214000101B2350101AE6F0101B3350101AF6FB8
:101224000101B4350101B06F7FD0B1C1F2F0B2C198
:10123400F3F0B3C1F4F0B4C1F5F0020ED89000019C
:10124400F237F337F437F537E82EF8D735D0B1C194
:10125400F2F0B2C1F3F0B3C1F4F0B4C1F5F0030E8F
:10126400D8900001F237F337F437F537E82EF8D782
:1012740023D0B1C1F2F0B2C1F3F0B3C1F4F0B4C100
:10128400F5F0040ED8900001F237F337F437F53750
:10129400E82EF8D711D0B1C1F2F0B2C1F3F0B3C166
:1012A400F4F0B4C1F5F0050ED8900001F237F3372D
:1012B400F437F537E82EF8D7F2C0ADF1F3C0AEF14C
:1012C400F4C0AFF1F5C0B0F12FD0A9C1F2F0AAC1BA
:1012D400F3F00001F351000AD8A426D00001F25122
:1012E400000AD8B419D7010AD8B429D7030AD8B444
:1012F40039D7010AD8B449D7070AD8B459D7010A4B
:10130400D8B469D7030AD8B475D7010AD8B47BD73F
:101314000F0AD8B48AD7010AD8B499D7030AD8B423
:10132400A8D7010AD8B4B7D75B0E0001E46F100E3A
:101334000001E56FADC1E6F0AEC1E7F0AFC1E8F082
:10134400B0C1E9F0A7EC09F01200E60E0001EB6F62
:10135400000E0001EC6F14D1250E0001F119D8B470
:1013640005D00001F15172EC0FF00AD1000E00011A
:10137400EE6F03D00001EE8F1AD0E4C0F6FFE5C093
:10138400F7FF0001E44BE52BF86A0800F5CFF1F014
:101394000001F151000AD8B41200640AD8B407D08D
:1013A4000D0AD8B404D0110AD8B4E4D7E9D00001A6
:1013B400EEBF19D0EBC0D9FFECC0DAFFDECFEFF0FF
:1013C400DDCFF0F0020E0001EB27000EEC2300014C
:1013D400F0AF59D0030E0001EE130001EF6DF01FC2
:1013E400D8B0F02B50D0EBC0D9FFECC0DAFFDECF81
:1013F400EFF0DDCFF0F0020E0001EB27000EEC233E
:1014040042D0010E0001F16F050E0001F119D8B4AC
:1014140043D00001F151020D010EF324F66E100EBB
:10142400F420F76EF86A000EF8220900F550000166
:10143400EF5D0900F5500001F059D8A02DD000014E
:10144400F12BE2D7010E0001F16F040E0001F11936
:10145400D8B422D00001F151020D0B0EF324F66E24
:10146400100EF420F76EF86A000EF8220900F55009
:101474000001EF5D0900F5500001F059D8A00CD02F
:101484000001F12BE2D70001EE51800B000AD8B421
:10149400B8D7800AD8B4D6D7EEC02DF0030E2D16D7
:1014A400D8B403D02D0E72EC0FF0F1C0EDF062D081
:1014B4000001ED51020D010EF324F66E100EF4201E
:1014C400F76EF86A000EF8220900F5CF27F00A003B
:1014D400F5CF28F0EFC025F0F0C026F0F1EC0DF0C8
:1014E40025C0E0F026C0E1F0000E0001E36F0A0E13
:1014F400E26FC3EC0DF00001E051300F0001F16F19
:1015040035D0EFC025F0F0C026F00001ED51020DFA
:101514000B0EF324F66E100EF420F76EF86A000E2C
:10152400F8220900F5CF27F00A00F5CF28F0F1ECF6
:101534000DF025500F0B0001EA6F0001EA51010D77
:10154400130EF324F66E100EF420F76EF86A000EF4
:10155400F8220800F5CFF1F009D00001EE51800B1C
:10156400000AD8B4A5D7800AD8B4CBD70001F1516A
:1015740072EC0FF00001ED070001ED29D8A4EDD7BE
:10158400E4C0F6FFE5C0F7FF0001E44BE52BF86A81
:101594000800F5CFF1F00001F151D8B41200DCD607
:1015A400000E266E94969488680E256EE40EE82E3E
:1015B400FED7252EFCD700D09486340E256EF20E6D
:1015C400E82EFED7252EFCD782A802D0010E01D02A
:1015D400000E261226502624266E94969488680EB1
:1015E400256EE40EE82EFED7252EFCD700D0948677
:1015F400340E256EF20EE82EFED7252EFCD782A8D7
:1016040002D0010E01D0000E261226502624266E8A
:1016140094969488680E256EE40EE82EFED7252E47
:10162400FCD700D09486340E256EF20EE82EFED739
:10163400252EFCD782A802D0010E01D0000E26125E
:1016440026502624266E94969488680E256EE40E01
:10165400E82EFED7252EFCD700D09486340E256EB6
:10166400F20EE82EFED7252EFCD782A802D0010E5A
:1016740001D0000E261226502624266E94969488B5
:10168400680E256EE40EE82EFED7252EFCD700D07A
:101694009486340E256EF20EE82EFED7252EFCD746
:1016A40082A802D0010E01D0000E26122650262454
:1016B400266E94969488680E256EE40EE82EFED766
:1016C400252EFCD700D09486340E256EF20EE82E1B
:1016D400FED7252EFCD782A802D0010E01D0000E21
:1016E400261226502624266E94969488680E256E1B
:1016F400E40EE82EFED7252EFCD700D09486340EB7
:10170400256EF20EE82EFED7252EFCD782A802D035
:10171400010E01D0000E261226502624266E949621
:101724009488680E256EE40EE82EFED7252EFCD78D
:1017340000D09486340E256EF20EE82EFED7252EA8
:10174400FCD782A802D0010E01D0000E261226502A
:101754001200ABA202D0AB98AB883250010D000E40
:10176400F324D96E020EF420DA6EAECFDFFF322AF4
:101774007F0E326402D0000E326E312A000E166ED5
:10178400000E156E3750D8A412001CD0FEEC0EF0DB
:10179400146E600E2F24D96E000E3020DA6E14C041
:1017A400DFFF600E2F24D96E000E3020DA6E0A0E91
:1017B400DE18D8A405D0000E166E010E156E05D0E5
:1017C4002F4A302A3150D8A4E1D715041610D8A4D2
:1017D40012002F06D8A03006600E2F24D96E000EFA
:1017E4003020DA6E000EDF6E000E386E400E016E91
:1017F400100E026E600E036E000E046EAFEC0CF061
:1018040001500210D8A402D0050E2BD0600E106E29
:10181400000E116E4A0E126E100E136E3DEC0DF09A
:1018240010501110D8B40ED0340E00016A19D8A487
:1018340007D0330E00016B19D8A402D0040E11D0C6
:10184400030E0FD0600E016E000E026E340E036E96
:10185400100E046EAFEC0CF001500210D8A403D0AB
:1018640010D0386E10D0600E016E000E026E3D0E68
:10187400036E100E046EAFEC0CF001500210D8A4ED
:1018840002D0010EEED7000E306E000E2F6E010E48
:10189400376E120055EC0FF0F28EF28C0F013A996C
:1018A4007CEC0FF0000E266E040E256EB0EC0EF0EC
:1018B4001AEC0EF0000E266E040E256EB0EC0EF03F
:1018C4002FEC0FF0880EF7EC0CF0010EF7EC0CF097
:1018D400C40EF7EC0CF0100EF7EC0CF01AEC0EF052
:1018E400150E0001F66FC60EE82EFED7F62FFCD7B4
:1018F40000D02FEC0FF0880EF7EC0CF07E0EF7EC16
:101904000CF02FEC0FF0890EF7EC0CF0D2EC0AF08F
:101914000001F76FD2EC0AF00001F86F1AEC0EF038
:10192400530E0001E46F100E0001E56FF7C0E6F0FE
:101934000001E76BF8C0E8F00001E96BA7EC09F0DF
:10194400F8C02EF00001F75132EC08F0000E266EBC
:10195400C80E256EB0EC0EF0CCD704D0014A022A92
:10196400034A042A01C0F6FF02C0F7FF000EF86E16
:101974000F0EF76403D00800F55005D0F6CFE9FF49
:10198400F7CFEAFFEF50056E03C0F6FF04C0F7FF80
:10199400000EF86E0F0EF76403D00800F55005D062
:1019A400F6CFE9FFF7CFEAFFEF5000080524066EF3
:1019B4000650D8A414D001C0F6FF02C0F7FF000EF1
:1019C400F86E0F0EF76403D00800F55005D0F6CF7B
:1019D400E9FFF7CFEAFFEF500009D8A4BFD70650BC
:1019E400016E026A01BE02061200286E000E296E04
:1019F400070E296401D02BD09496340E256EF20E76
:101A0400E82EFED7252EFCD729C025F02850266EB7
:101A1400276A252A03D0D89026362736252EFBD7C9
:101A240026AE02D0948801D09498340E256EF20E1E
:101A3400E82EFED7252EFCD79486680E256EE40E7C
:101A4400E82EFED7252EFCD700D0292AD1D794968C
:101A54009488680E256EE40EE82EFED7252EFCD75A
:101A640000D09486680E256EE40EE82EFED7252E4F
:101A7400FCD700D0120032D010C007F011C008F01B
:101A840012C009F013C00AF012C001F013C002F032
:101A94003BEC0EF001C00BF002C00CF080EC0DF03A
:101AA40007500810D8A405D010C010F011C011F0D0
:101AB4001200010E1024016E000E1120026E12C0DD
:101AC400F6FF13C0F7FFF86A0800F550036E046AC6
:101AD40095EC0EF001C010F002C011F0105011107E
:101AE400D8B407D010C0D9FF11C0DAFFDF50D8A492
:101AF400C3D7000E106E000E116E120035D007C051
:101B0400D9FF08C0DAFFDF50D8B410D007C0D9FF1E
:101B140008C0DAFFDF500D6E09C0F6FF0AC0F7FFF8
:101B2400F86A0800F5500D18D8B41AD009C0F6FFA9
:101B34000AC0F7FFF86A0800F5500D6E0E6A0D1E14
:101B44000E1E0D4A0E2A07C0D9FF08C0DAFFDF5067
:101B54000F6E0F500D24076E000E0E20086E12003B
:101B6400074A082A094A0A2A0B06D8A00C060B2899
:101B7400C6E10C28D8A4C3D7000E086E000E076E69
:101B840012000001E2510001E311D8B423D0010E88
:101B94002C6E05D00001D890E237E3372C2A0001DF
:101BA400E3AFF8D70001E2510001E05D0001E35129
:101BB4000001E159D8A008D00001E2510001E05F22
:101BC4000001E3510001E15B0001D890E333E2330B
:101BD4002C2EE8D7E0C0E0F0E1C0E1F01200000EE6
:101BE4002B6E000E2A6E27502810D8B41CD0010E7C
:101BF400296E04D0D89027362836292A28AEFAD759
:101C0400D8902A362B362750255C28502658D8A041
:101C140005D02750255E2850265A2A80D89028328D
:101C24002732292EEDD72AC025F02BC026F012002A
:101C34009496340E256EF20EE82EFED7252EFCD790
:101C44009498340E256EF20EE82EFED7252EFCD77E
:101C54009486340E256EF20EE82EFED7252EFCD780
:101C64009488340E256EF20EE82EFED7252EFCD76E
:101C7400120001C005F002C006F002D0054A062A8F
:101C840005C0F6FF06C0F7FFF86A0800F550000922
:101C9400D8A4F4D701C003F002C004F0031E041E4C
:101CA400034A042A05500324016E06500420026EE0
:101CB400120002EE00F0800EEE6AE806FDE101EE8D
:101CC40000F0A80EEE6AE806FDE100EE60F0800E7A
:101CD400EE6AE806FDE100EE2FF00B0EEE6AE80670
:101CE400FDE13B903B9200014CEF0CF0256E3A5025
:101CF400D8B4FDD79DB803D025C0ADFF12D09D98B0
:101D04003450010D000EF324D96E010EF420DA6E66
:101D140025C0DFFF342A7F0E346402D0000E346EF7
:101D24003A069D88120001C0D9FF02C0DAFF0350B1
:101D3400DE18D8A405D001C001F002C002F01200E0
:101D440001C0D9FF02C0DAFF014A022ADF50D8A439
:101D5400EAD7000E016E000E026E1200000E2A6E0B
:101D640009D0680E276EE40EE82EFED7272EFCD786
:101D740000D02A2A2A50276E286A2550275C28502A
:101D8400800A296E2650800A2958D8B01200E9D753
:101D9400000E8A6E000E896E000E8B6E2F0E0F01E0
:101DA400386F3E0E0F01396F380E0F013A6FC80EAF
:101DB400936EF90E946EFE0E616EEF0E926EF18EBE
:101DC400F29612009D9A9D98000EB86E900EAB6E1E
:101DD400200EAC6E100EAF6E000EB06E000E346EA0
:101DE400000E356E800E3A6E000E326E000E336EAB
:101DF400000E316E9D8A1200000E016E3150D8B46F
:101E0400FDD79D9A3350010D000EF324D96E020EB6
:101E1400F420DA6EDF50016E332A7F0E336402D071
:101E2400000E336E31069D8A01501200800E3A6016
:101E340012D03550010D000EF324D96E010EF4209A
:101E4400DA6EDF50AD6E352A7F0E356402D0000E97
:101E5400356E3A2A12009D9812008B988B969486C0
:101E64009488680E256EE40EE82EFED7252EFCD746
:101E740000D09498680E256EE40EE82EFED7252E29
:101E8400FCD700D012000E0EBD6E000EB66E820E90
:101E9400B76E010EB96E000EBE6E000EBF6EFC0E64
:101EA4000F014917120077EC0FF0CAEC0EF06BEC3F
:101EB4000FF045EC0FF062EC0FF0E4EC0EF01200C2
:101EC400000EBA6EBB68000EBC6E9E9281EC0FF0E1
:101ED4001200700ED36E040ED26E400E9B6E120072
:101EE400266E265078EC0EF01200D09EF1949F9846
:101EF4009F9A1200948894868B988B961200BA84C9
:021F04001200C9
:020000040020DA
:08000000FFFFFFFFFFFFFFFF00
:020000040030CA
:0E000000FF281F3CFFBF81FF0FC00FE00F4025
:00000001FF
